{
  "_format": "hh-sol-artifact-1",
  "contractName": "ProfileImageNfts",
  "sourceName": "contracts/MintProfileImage.sol",
  "abi": [
    {
      "inputs": [],
      "stateMutability": "nonpayable",
      "type": "constructor"
    },
    {
      "anonymous": false,
      "inputs": [
        {
          "indexed": true,
          "internalType": "address",
          "name": "owner",
          "type": "address"
        },
        {
          "indexed": true,
          "internalType": "address",
          "name": "approved",
          "type": "address"
        },
        {
          "indexed": true,
          "internalType": "uint256",
          "name": "tokenId",
          "type": "uint256"
        }
      ],
      "name": "Approval",
      "type": "event"
    },
    {
      "anonymous": false,
      "inputs": [
        {
          "indexed": true,
          "internalType": "address",
          "name": "owner",
          "type": "address"
        },
        {
          "indexed": true,
          "internalType": "address",
          "name": "operator",
          "type": "address"
        },
        {
          "indexed": false,
          "internalType": "bool",
          "name": "approved",
          "type": "bool"
        }
      ],
      "name": "ApprovalForAll",
      "type": "event"
    },
    {
      "anonymous": false,
      "inputs": [
        {
          "indexed": true,
          "internalType": "address",
          "name": "previousOwner",
          "type": "address"
        },
        {
          "indexed": true,
          "internalType": "address",
          "name": "newOwner",
          "type": "address"
        }
      ],
      "name": "OwnershipTransferred",
      "type": "event"
    },
    {
      "anonymous": false,
      "inputs": [
        {
          "indexed": true,
          "internalType": "address",
          "name": "from",
          "type": "address"
        },
        {
          "indexed": true,
          "internalType": "address",
          "name": "to",
          "type": "address"
        },
        {
          "indexed": true,
          "internalType": "uint256",
          "name": "tokenId",
          "type": "uint256"
        }
      ],
      "name": "Transfer",
      "type": "event"
    },
    {
      "inputs": [
        {
          "internalType": "address",
          "name": "to",
          "type": "address"
        },
        {
          "internalType": "uint256",
          "name": "tokenId",
          "type": "uint256"
        }
      ],
      "name": "approve",
      "outputs": [],
      "stateMutability": "nonpayable",
      "type": "function"
    },
    {
      "inputs": [
        {
          "internalType": "address",
          "name": "owner",
          "type": "address"
        }
      ],
      "name": "balanceOf",
      "outputs": [
        {
          "internalType": "uint256",
          "name": "",
          "type": "uint256"
        }
      ],
      "stateMutability": "view",
      "type": "function"
    },
    {
      "inputs": [],
      "name": "getAlltoken",
      "outputs": [
        {
          "components": [
            {
              "internalType": "uint256",
              "name": "id",
              "type": "uint256"
            },
            {
              "internalType": "string",
              "name": "uri",
              "type": "string"
            },
            {
              "internalType": "string",
              "name": "space",
              "type": "string"
            }
          ],
          "internalType": "struct ProfileImageNfts.RenderToken[]",
          "name": "",
          "type": "tuple[]"
        }
      ],
      "stateMutability": "view",
      "type": "function"
    },
    {
      "inputs": [
        {
          "internalType": "uint256",
          "name": "tokenId",
          "type": "uint256"
        }
      ],
      "name": "getApproved",
      "outputs": [
        {
          "internalType": "address",
          "name": "",
          "type": "address"
        }
      ],
      "stateMutability": "view",
      "type": "function"
    },
    {
      "inputs": [
        {
          "internalType": "address",
          "name": "owner",
          "type": "address"
        },
        {
          "internalType": "address",
          "name": "operator",
          "type": "address"
        }
      ],
      "name": "isApprovedForAll",
      "outputs": [
        {
          "internalType": "bool",
          "name": "",
          "type": "bool"
        }
      ],
      "stateMutability": "view",
      "type": "function"
    },
    {
      "inputs": [
        {
          "internalType": "address",
          "name": "recipients",
          "type": "address"
        },
        {
          "internalType": "string",
          "name": "_uri",
          "type": "string"
        }
      ],
      "name": "mint",
      "outputs": [
        {
          "internalType": "uint256",
          "name": "",
          "type": "uint256"
        }
      ],
      "stateMutability": "nonpayable",
      "type": "function"
    },
    {
      "inputs": [],
      "name": "name",
      "outputs": [
        {
          "internalType": "string",
          "name": "",
          "type": "string"
        }
      ],
      "stateMutability": "view",
      "type": "function"
    },
    {
      "inputs": [],
      "name": "owner",
      "outputs": [
        {
          "internalType": "address",
          "name": "",
          "type": "address"
        }
      ],
      "stateMutability": "view",
      "type": "function"
    },
    {
      "inputs": [
        {
          "internalType": "uint256",
          "name": "tokenId",
          "type": "uint256"
        }
      ],
      "name": "ownerOf",
      "outputs": [
        {
          "internalType": "address",
          "name": "",
          "type": "address"
        }
      ],
      "stateMutability": "view",
      "type": "function"
    },
    {
      "inputs": [],
      "name": "renounceOwnership",
      "outputs": [],
      "stateMutability": "nonpayable",
      "type": "function"
    },
    {
      "inputs": [
        {
          "internalType": "address",
          "name": "from",
          "type": "address"
        },
        {
          "internalType": "address",
          "name": "to",
          "type": "address"
        },
        {
          "internalType": "uint256",
          "name": "tokenId",
          "type": "uint256"
        }
      ],
      "name": "safeTransferFrom",
      "outputs": [],
      "stateMutability": "nonpayable",
      "type": "function"
    },
    {
      "inputs": [
        {
          "internalType": "address",
          "name": "from",
          "type": "address"
        },
        {
          "internalType": "address",
          "name": "to",
          "type": "address"
        },
        {
          "internalType": "uint256",
          "name": "tokenId",
          "type": "uint256"
        },
        {
          "internalType": "bytes",
          "name": "_data",
          "type": "bytes"
        }
      ],
      "name": "safeTransferFrom",
      "outputs": [],
      "stateMutability": "nonpayable",
      "type": "function"
    },
    {
      "inputs": [
        {
          "internalType": "address",
          "name": "operator",
          "type": "address"
        },
        {
          "internalType": "bool",
          "name": "approved",
          "type": "bool"
        }
      ],
      "name": "setApprovalForAll",
      "outputs": [],
      "stateMutability": "nonpayable",
      "type": "function"
    },
    {
      "inputs": [
        {
          "internalType": "bytes4",
          "name": "interfaceId",
          "type": "bytes4"
        }
      ],
      "name": "supportsInterface",
      "outputs": [
        {
          "internalType": "bool",
          "name": "",
          "type": "bool"
        }
      ],
      "stateMutability": "view",
      "type": "function"
    },
    {
      "inputs": [],
      "name": "symbol",
      "outputs": [
        {
          "internalType": "string",
          "name": "",
          "type": "string"
        }
      ],
      "stateMutability": "view",
      "type": "function"
    },
    {
      "inputs": [
        {
          "internalType": "uint256",
          "name": "tokenId",
          "type": "uint256"
        }
      ],
      "name": "tokenURI",
      "outputs": [
        {
          "internalType": "string",
          "name": "",
          "type": "string"
        }
      ],
      "stateMutability": "view",
      "type": "function"
    },
    {
      "inputs": [
        {
          "internalType": "address",
          "name": "from",
          "type": "address"
        },
        {
          "internalType": "address",
          "name": "to",
          "type": "address"
        },
        {
          "internalType": "uint256",
          "name": "tokenId",
          "type": "uint256"
        }
      ],
      "name": "transferFrom",
      "outputs": [],
      "stateMutability": "nonpayable",
      "type": "function"
    },
    {
      "inputs": [
        {
          "internalType": "address",
          "name": "newOwner",
          "type": "address"
        }
      ],
      "name": "transferOwnership",
      "outputs": [],
      "stateMutability": "nonpayable",
      "type": "function"
    }
  ],
  "bytecode": "0x60806040523480156200001157600080fd5b506040518060400160405280601081526020017f50726f66696c65496d6167654e465473000000000000000000000000000000008152506040518060400160405280600381526020017f50494e0000000000000000000000000000000000000000000000000000000000815250816000908051906020019062000096929190620001a6565b508060019080519060200190620000af929190620001a6565b505050620000d2620000c6620000d860201b60201c565b620000e060201b60201c565b620002bb565b600033905090565b6000600660009054906101000a900473ffffffffffffffffffffffffffffffffffffffff16905081600660006101000a81548173ffffffffffffffffffffffffffffffffffffffff021916908373ffffffffffffffffffffffffffffffffffffffff1602179055508173ffffffffffffffffffffffffffffffffffffffff168173ffffffffffffffffffffffffffffffffffffffff167f8be0079c531659141344cd1fd0a4f28419497f9722a3daafe3b4186f6b6457e060405160405180910390a35050565b828054620001b49062000256565b90600052602060002090601f016020900481019282620001d8576000855562000224565b82601f10620001f357805160ff191683800117855562000224565b8280016001018555821562000224579182015b828111156200022357825182559160200191906001019062000206565b5b50905062000233919062000237565b5090565b5b808211156200025257600081600090555060010162000238565b5090565b600060028204905060018216806200026f57607f821691505b602082108114156200028657620002856200028c565b5b50919050565b7f4e487b7100000000000000000000000000000000000000000000000000000000600052602260045260246000fd5b612d6380620002cb6000396000f3fe608060405234801561001057600080fd5b50600436106101165760003560e01c8063715018a6116100a2578063b88d4fde11610071578063b88d4fde146102cd578063c87b56dd146102e9578063d0def52114610319578063e985e9c514610349578063f2fde38b1461037957610116565b8063715018a61461026b5780638da5cb5b1461027557806395d89b4114610293578063a22cb465146102b157610116565b806323b872dd116100e957806323b872dd146101b557806328904431146101d157806342842e0e146101ef5780636352211e1461020b57806370a082311461023b57610116565b806301ffc9a71461011b57806306fdde031461014b578063081812fc14610169578063095ea7b314610199575b600080fd5b61013560048036038101906101309190611db9565b610395565b60405161014291906122b4565b60405180910390f35b610153610477565b60405161016091906122cf565b60405180910390f35b610183600480360381019061017e9190611e0b565b610509565b604051610190919061222b565b60405180910390f35b6101b360048036038101906101ae9190611d7d565b61058e565b005b6101cf60048036038101906101ca9190611c23565b6106a6565b005b6101d9610706565b6040516101e69190612292565b60405180910390f35b61020960048036038101906102049190611c23565b61086c565b005b61022560048036038101906102209190611e0b565b61088c565b604051610232919061222b565b60405180910390f35b61025560048036038101906102509190611bbe565b61093e565b60405161026291906124f1565b60405180910390f35b6102736109f6565b005b61027d610a7e565b60405161028a919061222b565b60405180910390f35b61029b610aa8565b6040516102a891906122cf565b60405180910390f35b6102cb60048036038101906102c69190611ced565b610b3a565b005b6102e760048036038101906102e29190611c72565b610b50565b005b61030360048036038101906102fe9190611e0b565b610bb2565b60405161031091906122cf565b60405180910390f35b610333600480360381019061032e9190611d29565b610ca5565b60405161034091906124f1565b60405180910390f35b610363600480360381019061035e9190611be7565b610cdc565b60405161037091906122b4565b60405180910390f35b610393600480360381019061038e9190611bbe565b610d70565b005b60007f80ac58cd000000000000000000000000000000000000000000000000000000007bffffffffffffffffffffffffffffffffffffffffffffffffffffffff1916827bffffffffffffffffffffffffffffffffffffffffffffffffffffffff1916148061046057507f5b5e139f000000000000000000000000000000000000000000000000000000007bffffffffffffffffffffffffffffffffffffffffffffffffffffffff1916827bffffffffffffffffffffffffffffffffffffffffffffffffffffffff1916145b80610470575061046f82610e68565b5b9050919050565b60606000805461048690612755565b80601f01602080910402602001604051908101604052809291908181526020018280546104b290612755565b80156104ff5780601f106104d4576101008083540402835291602001916104ff565b820191906000526020600020905b8154815290600101906020018083116104e257829003601f168201915b5050505050905090565b600061051482610ed2565b610553576040517f08c379a000000000000000000000000000000000000000000000000000000000815260040161054a90612451565b60405180910390fd5b6004600083815260200190815260200160002060009054906101000a900473ffffffffffffffffffffffffffffffffffffffff169050919050565b60006105998261088c565b90508073ffffffffffffffffffffffffffffffffffffffff168373ffffffffffffffffffffffffffffffffffffffff16141561060a576040517f08c379a000000000000000000000000000000000000000000000000000000000815260040161060190612491565b60405180910390fd5b8073ffffffffffffffffffffffffffffffffffffffff16610629610f3e565b73ffffffffffffffffffffffffffffffffffffffff161480610658575061065781610652610f3e565b610cdc565b5b610697576040517f08c379a000000000000000000000000000000000000000000000000000000000815260040161068e906123d1565b60405180910390fd5b6106a18383610f46565b505050565b6106b76106b1610f3e565b82610fff565b6106f6576040517f08c379a00000000000000000000000000000000000000000000000000000000081526004016106ed906124b1565b60405180910390fd5b6107018383836110dd565b505050565b606060006107146007611344565b905060008167ffffffffffffffff811115610758577f4e487b7100000000000000000000000000000000000000000000000000000000600052604160045260246000fd5b60405190808252806020026020018201604052801561079157816020015b61077e6119c1565b8152602001906001900390816107765790505b50905060005b82811015610863576107a881610ed2565b156108505760006107b882610bb2565b905060405180606001604052808381526020018281526020016040518060400160405280600181526020017f2000000000000000000000000000000000000000000000000000000000000000815250815250838381518110610843577f4e487b7100000000000000000000000000000000000000000000000000000000600052603260045260246000fd5b6020026020010181905250505b808061085b906127b8565b915050610797565b50809250505090565b61088783838360405180602001604052806000815250610b50565b505050565b6000806002600084815260200190815260200160002060009054906101000a900473ffffffffffffffffffffffffffffffffffffffff169050600073ffffffffffffffffffffffffffffffffffffffff168173ffffffffffffffffffffffffffffffffffffffff161415610935576040517f08c379a000000000000000000000000000000000000000000000000000000000815260040161092c90612411565b60405180910390fd5b80915050919050565b60008073ffffffffffffffffffffffffffffffffffffffff168273ffffffffffffffffffffffffffffffffffffffff1614156109af576040517f08c379a00000000000000000000000000000000000000000000000000000000081526004016109a6906123f1565b60405180910390fd5b600360008373ffffffffffffffffffffffffffffffffffffffff1673ffffffffffffffffffffffffffffffffffffffff168152602001908152602001600020549050919050565b6109fe610f3e565b73ffffffffffffffffffffffffffffffffffffffff16610a1c610a7e565b73ffffffffffffffffffffffffffffffffffffffff1614610a72576040517f08c379a0000000000000000000000000000000000000000000000000000000008152600401610a6990612471565b60405180910390fd5b610a7c6000611352565b565b6000600660009054906101000a900473ffffffffffffffffffffffffffffffffffffffff16905090565b606060018054610ab790612755565b80601f0160208091040260200160405190810160405280929190818152602001828054610ae390612755565b8015610b305780601f10610b0557610100808354040283529160200191610b30565b820191906000526020600020905b815481529060010190602001808311610b1357829003601f168201915b5050505050905090565b610b4c610b45610f3e565b8383611418565b5050565b610b61610b5b610f3e565b83610fff565b610ba0576040517f08c379a0000000000000000000000000000000000000000000000000000000008152600401610b97906124b1565b60405180910390fd5b610bac84848484611585565b50505050565b6060610bbd82610ed2565b610bfc576040517f08c379a0000000000000000000000000000000000000000000000000000000008152600401610bf3906124d1565b60405180910390fd5b6000600860008481526020019081526020016000208054610c1c90612755565b80601f0160208091040260200160405190810160405280929190818152602001828054610c4890612755565b8015610c955780601f10610c6a57610100808354040283529160200191610c95565b820191906000526020600020905b815481529060010190602001808311610c7857829003601f168201915b5050505050905080915050919050565b600080610cb26007611344565b9050610cbe84826115e1565b610cc881846117bb565b610cd260076117e7565b8091505092915050565b6000600560008473ffffffffffffffffffffffffffffffffffffffff1673ffffffffffffffffffffffffffffffffffffffff16815260200190815260200160002060008373ffffffffffffffffffffffffffffffffffffffff1673ffffffffffffffffffffffffffffffffffffffff16815260200190815260200160002060009054906101000a900460ff16905092915050565b610d78610f3e565b73ffffffffffffffffffffffffffffffffffffffff16610d96610a7e565b73ffffffffffffffffffffffffffffffffffffffff1614610dec576040517f08c379a0000000000000000000000000000000000000000000000000000000008152600401610de390612471565b60405180910390fd5b600073ffffffffffffffffffffffffffffffffffffffff168173ffffffffffffffffffffffffffffffffffffffff161415610e5c576040517f08c379a0000000000000000000000000000000000000000000000000000000008152600401610e5390612311565b60405180910390fd5b610e6581611352565b50565b60007f01ffc9a7000000000000000000000000000000000000000000000000000000007bffffffffffffffffffffffffffffffffffffffffffffffffffffffff1916827bffffffffffffffffffffffffffffffffffffffffffffffffffffffff1916149050919050565b60008073ffffffffffffffffffffffffffffffffffffffff166002600084815260200190815260200160002060009054906101000a900473ffffffffffffffffffffffffffffffffffffffff1673ffffffffffffffffffffffffffffffffffffffff1614159050919050565b600033905090565b816004600083815260200190815260200160002060006101000a81548173ffffffffffffffffffffffffffffffffffffffff021916908373ffffffffffffffffffffffffffffffffffffffff160217905550808273ffffffffffffffffffffffffffffffffffffffff16610fb98361088c565b73ffffffffffffffffffffffffffffffffffffffff167f8c5be1e5ebec7d5bd14f71427d1e84f3dd0314c0f7b2291e5b200ac8c7c3b92560405160405180910390a45050565b600061100a82610ed2565b611049576040517f08c379a0000000000000000000000000000000000000000000000000000000008152600401611040906123b1565b60405180910390fd5b60006110548361088c565b90508073ffffffffffffffffffffffffffffffffffffffff168473ffffffffffffffffffffffffffffffffffffffff1614806110c357508373ffffffffffffffffffffffffffffffffffffffff166110ab84610509565b73ffffffffffffffffffffffffffffffffffffffff16145b806110d457506110d38185610cdc565b5b91505092915050565b8273ffffffffffffffffffffffffffffffffffffffff166110fd8261088c565b73ffffffffffffffffffffffffffffffffffffffff1614611153576040517f08c379a000000000000000000000000000000000000000000000000000000000815260040161114a90612331565b60405180910390fd5b600073ffffffffffffffffffffffffffffffffffffffff168273ffffffffffffffffffffffffffffffffffffffff1614156111c3576040517f08c379a00000000000000000000000000000000000000000000000000000000081526004016111ba90612371565b60405180910390fd5b6111ce8383836117fd565b6111d9600082610f46565b6001600360008573ffffffffffffffffffffffffffffffffffffffff1673ffffffffffffffffffffffffffffffffffffffff1681526020019081526020016000206000828254611229919061266b565b925050819055506001600360008473ffffffffffffffffffffffffffffffffffffffff1673ffffffffffffffffffffffffffffffffffffffff16815260200190815260200160002060008282546112809190612615565b92505081905550816002600083815260200190815260200160002060006101000a81548173ffffffffffffffffffffffffffffffffffffffff021916908373ffffffffffffffffffffffffffffffffffffffff160217905550808273ffffffffffffffffffffffffffffffffffffffff168473ffffffffffffffffffffffffffffffffffffffff167fddf252ad1be2c89b69c2b068fc378daa952ba7f163c4a11628f55a4df523b3ef60405160405180910390a461133f838383611802565b505050565b600081600001549050919050565b6000600660009054906101000a900473ffffffffffffffffffffffffffffffffffffffff16905081600660006101000a81548173ffffffffffffffffffffffffffffffffffffffff021916908373ffffffffffffffffffffffffffffffffffffffff1602179055508173ffffffffffffffffffffffffffffffffffffffff168173ffffffffffffffffffffffffffffffffffffffff167f8be0079c531659141344cd1fd0a4f28419497f9722a3daafe3b4186f6b6457e060405160405180910390a35050565b8173ffffffffffffffffffffffffffffffffffffffff168373ffffffffffffffffffffffffffffffffffffffff161415611487576040517f08c379a000000000000000000000000000000000000000000000000000000000815260040161147e90612391565b60405180910390fd5b80600560008573ffffffffffffffffffffffffffffffffffffffff1673ffffffffffffffffffffffffffffffffffffffff16815260200190815260200160002060008473ffffffffffffffffffffffffffffffffffffffff1673ffffffffffffffffffffffffffffffffffffffff16815260200190815260200160002060006101000a81548160ff0219169083151502179055508173ffffffffffffffffffffffffffffffffffffffff168373ffffffffffffffffffffffffffffffffffffffff167f17307eab39ab6107e8899845ad3d59bd9653f200f220920489ca2b5937696c318360405161157891906122b4565b60405180910390a3505050565b6115908484846110dd565b61159c84848484611807565b6115db576040517f08c379a00000000000000000000000000000000000000000000000000000000081526004016115d2906122f1565b60405180910390fd5b50505050565b600073ffffffffffffffffffffffffffffffffffffffff168273ffffffffffffffffffffffffffffffffffffffff161415611651576040517f08c379a000000000000000000000000000000000000000000000000000000000815260040161164890612431565b60405180910390fd5b61165a81610ed2565b1561169a576040517f08c379a000000000000000000000000000000000000000000000000000000000815260040161169190612351565b60405180910390fd5b6116a6600083836117fd565b6001600360008473ffffffffffffffffffffffffffffffffffffffff1673ffffffffffffffffffffffffffffffffffffffff16815260200190815260200160002060008282546116f69190612615565b92505081905550816002600083815260200190815260200160002060006101000a81548173ffffffffffffffffffffffffffffffffffffffff021916908373ffffffffffffffffffffffffffffffffffffffff160217905550808273ffffffffffffffffffffffffffffffffffffffff16600073ffffffffffffffffffffffffffffffffffffffff167fddf252ad1be2c89b69c2b068fc378daa952ba7f163c4a11628f55a4df523b3ef60405160405180910390a46117b760008383611802565b5050565b806008600084815260200190815260200160002090805190602001906117e29291906119e2565b505050565b6001816000016000828254019250508190555050565b505050565b505050565b60006118288473ffffffffffffffffffffffffffffffffffffffff1661199e565b15611991578373ffffffffffffffffffffffffffffffffffffffff1663150b7a02611851610f3e565b8786866040518563ffffffff1660e01b81526004016118739493929190612246565b602060405180830381600087803b15801561188d57600080fd5b505af19250505080156118be57506040513d601f19601f820116820180604052508101906118bb9190611de2565b60015b611941573d80600081146118ee576040519150601f19603f3d011682016040523d82523d6000602084013e6118f3565b606091505b50600081511415611939576040517f08c379a0000000000000000000000000000000000000000000000000000000008152600401611930906122f1565b60405180910390fd5b805181602001fd5b63150b7a0260e01b7bffffffffffffffffffffffffffffffffffffffffffffffffffffffff1916817bffffffffffffffffffffffffffffffffffffffffffffffffffffffff191614915050611996565b600190505b949350505050565b6000808273ffffffffffffffffffffffffffffffffffffffff163b119050919050565b60405180606001604052806000815260200160608152602001606081525090565b8280546119ee90612755565b90600052602060002090601f016020900481019282611a105760008555611a57565b82601f10611a2957805160ff1916838001178555611a57565b82800160010185558215611a57579182015b82811115611a56578251825591602001919060010190611a3b565b5b509050611a649190611a68565b5090565b5b80821115611a81576000816000905550600101611a69565b5090565b6000611a98611a9384612531565b61250c565b905082815260208101848484011115611ab057600080fd5b611abb848285612713565b509392505050565b6000611ad6611ad184612562565b61250c565b905082815260208101848484011115611aee57600080fd5b611af9848285612713565b509392505050565b600081359050611b1081612cd1565b92915050565b600081359050611b2581612ce8565b92915050565b600081359050611b3a81612cff565b92915050565b600081519050611b4f81612cff565b92915050565b600082601f830112611b6657600080fd5b8135611b76848260208601611a85565b91505092915050565b600082601f830112611b9057600080fd5b8135611ba0848260208601611ac3565b91505092915050565b600081359050611bb881612d16565b92915050565b600060208284031215611bd057600080fd5b6000611bde84828501611b01565b91505092915050565b60008060408385031215611bfa57600080fd5b6000611c0885828601611b01565b9250506020611c1985828601611b01565b9150509250929050565b600080600060608486031215611c3857600080fd5b6000611c4686828701611b01565b9350506020611c5786828701611b01565b9250506040611c6886828701611ba9565b9150509250925092565b60008060008060808587031215611c8857600080fd5b6000611c9687828801611b01565b9450506020611ca787828801611b01565b9350506040611cb887828801611ba9565b925050606085013567ffffffffffffffff811115611cd557600080fd5b611ce187828801611b55565b91505092959194509250565b60008060408385031215611d0057600080fd5b6000611d0e85828601611b01565b9250506020611d1f85828601611b16565b9150509250929050565b60008060408385031215611d3c57600080fd5b6000611d4a85828601611b01565b925050602083013567ffffffffffffffff811115611d6757600080fd5b611d7385828601611b7f565b9150509250929050565b60008060408385031215611d9057600080fd5b6000611d9e85828601611b01565b9250506020611daf85828601611ba9565b9150509250929050565b600060208284031215611dcb57600080fd5b6000611dd984828501611b2b565b91505092915050565b600060208284031215611df457600080fd5b6000611e0284828501611b40565b91505092915050565b600060208284031215611e1d57600080fd5b6000611e2b84828501611ba9565b91505092915050565b6000611e4083836121b6565b905092915050565b611e518161269f565b82525050565b6000611e62826125a3565b611e6c81856125d1565b935083602082028501611e7e85612593565b8060005b85811015611eba5784840389528151611e9b8582611e34565b9450611ea6836125c4565b925060208a01995050600181019050611e82565b50829750879550505050505092915050565b611ed5816126b1565b82525050565b6000611ee6826125ae565b611ef081856125e2565b9350611f00818560208601612722565b611f098161288e565b840191505092915050565b6000611f1f826125b9565b611f2981856125f3565b9350611f39818560208601612722565b611f428161288e565b840191505092915050565b6000611f58826125b9565b611f628185612604565b9350611f72818560208601612722565b611f7b8161288e565b840191505092915050565b6000611f93603283612604565b9150611f9e8261289f565b604082019050919050565b6000611fb6602683612604565b9150611fc1826128ee565b604082019050919050565b6000611fd9602583612604565b9150611fe48261293d565b604082019050919050565b6000611ffc601c83612604565b91506120078261298c565b602082019050919050565b600061201f602483612604565b915061202a826129b5565b604082019050919050565b6000612042601983612604565b915061204d82612a04565b602082019050919050565b6000612065602c83612604565b915061207082612a2d565b604082019050919050565b6000612088603883612604565b915061209382612a7c565b604082019050919050565b60006120ab602a83612604565b91506120b682612acb565b604082019050919050565b60006120ce602983612604565b91506120d982612b1a565b604082019050919050565b60006120f1602083612604565b91506120fc82612b69565b602082019050919050565b6000612114602c83612604565b915061211f82612b92565b604082019050919050565b6000612137602083612604565b915061214282612be1565b602082019050919050565b600061215a602183612604565b915061216582612c0a565b604082019050919050565b600061217d603183612604565b915061218882612c59565b604082019050919050565b60006121a0601d83612604565b91506121ab82612ca8565b602082019050919050565b60006060830160008301516121ce600086018261220d565b50602083015184820360208601526121e68282611f14565b915050604083015184820360408601526122008282611f14565b9150508091505092915050565b61221681612709565b82525050565b61222581612709565b82525050565b60006020820190506122406000830184611e48565b92915050565b600060808201905061225b6000830187611e48565b6122686020830186611e48565b612275604083018561221c565b81810360608301526122878184611edb565b905095945050505050565b600060208201905081810360008301526122ac8184611e57565b905092915050565b60006020820190506122c96000830184611ecc565b92915050565b600060208201905081810360008301526122e98184611f4d565b905092915050565b6000602082019050818103600083015261230a81611f86565b9050919050565b6000602082019050818103600083015261232a81611fa9565b9050919050565b6000602082019050818103600083015261234a81611fcc565b9050919050565b6000602082019050818103600083015261236a81611fef565b9050919050565b6000602082019050818103600083015261238a81612012565b9050919050565b600060208201905081810360008301526123aa81612035565b9050919050565b600060208201905081810360008301526123ca81612058565b9050919050565b600060208201905081810360008301526123ea8161207b565b9050919050565b6000602082019050818103600083015261240a8161209e565b9050919050565b6000602082019050818103600083015261242a816120c1565b9050919050565b6000602082019050818103600083015261244a816120e4565b9050919050565b6000602082019050818103600083015261246a81612107565b9050919050565b6000602082019050818103600083015261248a8161212a565b9050919050565b600060208201905081810360008301526124aa8161214d565b9050919050565b600060208201905081810360008301526124ca81612170565b9050919050565b600060208201905081810360008301526124ea81612193565b9050919050565b6000602082019050612506600083018461221c565b92915050565b6000612516612527565b90506125228282612787565b919050565b6000604051905090565b600067ffffffffffffffff82111561254c5761254b61285f565b5b6125558261288e565b9050602081019050919050565b600067ffffffffffffffff82111561257d5761257c61285f565b5b6125868261288e565b9050602081019050919050565b6000819050602082019050919050565b600081519050919050565b600081519050919050565b600081519050919050565b6000602082019050919050565b600082825260208201905092915050565b600082825260208201905092915050565b600082825260208201905092915050565b600082825260208201905092915050565b600061262082612709565b915061262b83612709565b9250827fffffffffffffffffffffffffffffffffffffffffffffffffffffffffffffffff038211156126605761265f612801565b5b828201905092915050565b600061267682612709565b915061268183612709565b92508282101561269457612693612801565b5b828203905092915050565b60006126aa826126e9565b9050919050565b60008115159050919050565b60007fffffffff0000000000000000000000000000000000000000000000000000000082169050919050565b600073ffffffffffffffffffffffffffffffffffffffff82169050919050565b6000819050919050565b82818337600083830152505050565b60005b83811015612740578082015181840152602081019050612725565b8381111561274f576000848401525b50505050565b6000600282049050600182168061276d57607f821691505b6020821081141561278157612780612830565b5b50919050565b6127908261288e565b810181811067ffffffffffffffff821117156127af576127ae61285f565b5b80604052505050565b60006127c382612709565b91507fffffffffffffffffffffffffffffffffffffffffffffffffffffffffffffffff8214156127f6576127f5612801565b5b600182019050919050565b7f4e487b7100000000000000000000000000000000000000000000000000000000600052601160045260246000fd5b7f4e487b7100000000000000000000000000000000000000000000000000000000600052602260045260246000fd5b7f4e487b7100000000000000000000000000000000000000000000000000000000600052604160045260246000fd5b6000601f19601f8301169050919050565b7f4552433732313a207472616e7366657220746f206e6f6e20455243373231526560008201527f63656976657220696d706c656d656e7465720000000000000000000000000000602082015250565b7f4f776e61626c653a206e6577206f776e657220697320746865207a65726f206160008201527f6464726573730000000000000000000000000000000000000000000000000000602082015250565b7f4552433732313a207472616e736665722066726f6d20696e636f72726563742060008201527f6f776e6572000000000000000000000000000000000000000000000000000000602082015250565b7f4552433732313a20746f6b656e20616c7265616479206d696e74656400000000600082015250565b7f4552433732313a207472616e7366657220746f20746865207a65726f2061646460008201527f7265737300000000000000000000000000000000000000000000000000000000602082015250565b7f4552433732313a20617070726f766520746f2063616c6c657200000000000000600082015250565b7f4552433732313a206f70657261746f7220717565727920666f72206e6f6e657860008201527f697374656e7420746f6b656e0000000000000000000000000000000000000000602082015250565b7f4552433732313a20617070726f76652063616c6c6572206973206e6f74206f7760008201527f6e6572206e6f7220617070726f76656420666f7220616c6c0000000000000000602082015250565b7f4552433732313a2062616c616e636520717565727920666f7220746865207a6560008201527f726f206164647265737300000000000000000000000000000000000000000000602082015250565b7f4552433732313a206f776e657220717565727920666f72206e6f6e657869737460008201527f656e7420746f6b656e0000000000000000000000000000000000000000000000602082015250565b7f4552433732313a206d696e7420746f20746865207a65726f2061646472657373600082015250565b7f4552433732313a20617070726f76656420717565727920666f72206e6f6e657860008201527f697374656e7420746f6b656e0000000000000000000000000000000000000000602082015250565b7f4f776e61626c653a2063616c6c6572206973206e6f7420746865206f776e6572600082015250565b7f4552433732313a20617070726f76616c20746f2063757272656e74206f776e6560008201527f7200000000000000000000000000000000000000000000000000000000000000602082015250565b7f4552433732313a207472616e736665722063616c6c6572206973206e6f74206f60008201527f776e6572206e6f7220617070726f766564000000000000000000000000000000602082015250565b7f55524920646f6573206e6f74206578697374206f6e2074686174204944000000600082015250565b612cda8161269f565b8114612ce557600080fd5b50565b612cf1816126b1565b8114612cfc57600080fd5b50565b612d08816126bd565b8114612d1357600080fd5b50565b612d1f81612709565b8114612d2a57600080fd5b5056fea2646970667358221220688033f80e42db7c9892bf096949935d489e05648e6be13a8775f6be1ecc067b64736f6c63430008040033",
  "linkReferences": {},
  "deployedLinkReferences": {}
}